:100000000C942A000C9447000C9447000C94470071
:100010000C9447000C9447000C9447000C94470044
:100020000C9447000C9447000C9447000C94470034
:100030000C9447000C9447000C9447000C94470024
:100040000C9447000C9447000C9447000C94470014
:100050000C94470011241FBECFE5D8E0DEBFCDBF12
:1000600010E0A0E6B0E0E6E3F5E002C005900D92F6
:10007000AE36B107D9F720E0AEE6B0E001C01D9280
:10008000AE36B207E1F70E945F020C9499020C941D
:100090000000843008F072C0683008F06FC0423051
:1000A00008F06CC0813001F130F08230B1F1833062
:1000B00009F44CC00895413059F42AB381E090E02E
:1000C00002C0880F991F6A95E2F7822B8ABB0895B8
:1000D0002AB381E090E002C0880F991F6A95E2F789
:1000E000809582238ABB0895413059F427B381E07B
:1000F00090E002C0880F991F6A95E2F7822B87BBB8
:10010000089527B381E090E002C0880F991F6A9597
:10011000E2F78095822387BB0895413059F424B3D8
:1001200081E090E002C0880F991F6A95E2F7822B68
:1001300084BB089524B381E090E002C0880F991F2A
:100140006A95E2F78095822384BB0895413059F483
:1001500021B381E090E002C0880F991F6A95E2F711
:10016000822B81BB089521B381E090E002C0880F0B
:10017000991F6A95E2F78095822381BB08958430A8
:1001800008F072C0683008F06FC0423008F06CC0F0
:10019000813001F130F08230B1F1833009F44CC08C
:1001A0000895413059F42BB381E090E002C0880FEC
:1001B000991F6A95E2F7822B8BBB08952BB381E0E0
:1001C00090E002C0880F991F6A95E2F7809582231C
:1001D0008BBB0895413059F428B381E090E002C010
:1001E000880F991F6A95E2F7822B88BB089528B380
:1001F00081E090E002C0880F991F6A95E2F7809530
:10020000822388BB0895413059F425B381E090E002
:1002100002C0880F991F6A95E2F7822B85BB08956B
:1002200025B381E090E002C0880F991F6A95E2F73C
:100230008095822385BB0895413059F422B381E033
:1002400090E002C0880F991F6A95E2F7822B82BB6B
:10025000089522B381E090E002C0880F991F6A954B
:10026000E2F78095822382BB0895CF93C82F80FF49
:1002700006C041E064E080E00E94BF0005C040E0AD
:1002800064E080E00E94BF00C1FF06C041E065E07D
:1002900080E00E94BF0005C040E065E080E00E9471
:1002A000BF00C2FF06C041E066E080E00E94BF00E0
:1002B00005C040E066E080E00E94BF00C3FF06C0CA
:1002C00041E067E080E00E94BF0005C040E067E0D9
:1002D00080E00E94BF00CF910895CF93C82F40E0E7
:1002E00061E081E00E94BF0040E062E081E00E94A6
:1002F000BF008C2F82958F700E94350141E063E032
:1003000081E00E94BF008FE99FE00197F1F700C0F4
:10031000000040E063E081E00E94BF008C2F0E945B
:10032000350141E063E081E00E94BF008FE99FE07A
:100330000197F1F700C0000040E063E081E00E9417
:10034000BF00CF9108952FE785EB91E021508040C9
:100350009040E1F700C0000040E061E081E00E94D1
:10036000BF0040E062E081E00E94BF0082E00E94A6
:10037000350141E063E081E00E94BF008FE99FE02A
:100380000197F1F700C0000040E063E081E00E94C7
:10039000BF0088E20E946D0190EF9A95F1F78CE022
:1003A0000E946D0120EF2A95F1F781E00E946D0116
:1003B0008FEF98E10197F1F700C0000086E00E94FE
:1003C0006D010895CF93C82F41E061E081E00E9464
:1003D000BF0040E062E081E00E94BF008C2F829568
:1003E0008F700E94350141E063E081E00E94BF0010
:1003F0008FE99FE00197F1F700C0000040E063E063
:1004000081E00E94BF008C2F0E94350141E063E033
:1004100081E00E94BF008FE99FE00197F1F700C0E3
:10042000000040E063E081E00E94BF00CF910895AA
:100430000F931F93CF93DF93009729F40DC00E9471
:10044000E201219603C08C01C0E0D0E0F801EC0F7E
:10045000FD1F80818111F3CFDF91CF911F910F910B
:10046000089541E064E080E00E94490041E065E0D9
:1004700080E00E94490041E066E080E00E9449007F
:1004800041E067E080E00E94490041E061E081E0F6
:100490000E94490041E062E081E00E94490041E0A1
:1004A00063E081E00E94490040E060E083E00E9458
:1004B000490041E061E083E00E94490008950E9404
:1004C00031020E94A30180E690E00E94180280ECB5
:1004D0000E946D010E947B0288E690E00E948C02DF
:1004E00084E50E94840280EC0E946D010E948802D3
:1004F0000E94E201F8CF83E389B98BB18D7F8BB97C
:100500008AB188618AB908955D9BFECF8CB9089540
:100510005F9BFECF8CB10895CF93DF93EC0103C0B6
:100520000E948402219688818111FACFDF91CF91B8
:060530000895F894FFCFCE
:0E053600554152542054520041686D656400D6
:00000001FF
