:100000000C942A000C943F000C943F000C943F0089
:100010000C943F000C943F000C943F000C943F0064
:100020000C943F000C943F000C943F000C943F0054
:100030000C943F000C943F000C943F000C943F0044
:100040000C943F000C943F000C943F000C943F0034
:100050000C943F0011241FBECFE5D8E0DEBFCDBF1A
:1000600010E0A0E6B0E0EAEAF7E002C005900D92E9
:10007000A037B107D9F70E9453030C94D3030C9413
:100080000000843008F072C0683008F06FC0423061
:1000900008F06CC0813001F130F08230B1F1833072
:1000A00009F44CC00895413059F42AB381E090E03E
:1000B00002C0880F991F6A95E2F7822B8ABB0895C8
:1000C0002AB381E090E002C0880F991F6A95E2F799
:1000D000809582238ABB0895413059F427B381E08B
:1000E00090E002C0880F991F6A95E2F7822B87BBC8
:1000F000089527B381E090E002C0880F991F6A95A8
:10010000E2F78095822387BB0895413059F424B3E8
:1001100081E090E002C0880F991F6A95E2F7822B78
:1001200084BB089524B381E090E002C0880F991F3A
:100130006A95E2F78095822384BB0895413059F493
:1001400021B381E090E002C0880F991F6A95E2F721
:10015000822B81BB089521B381E090E002C0880F1B
:10016000991F6A95E2F78095822381BB08958430B8
:1001700008F072C0683008F06FC0423008F06CC000
:10018000813001F130F08230B1F1833009F44CC09C
:100190000895413059F42BB381E090E002C0880FFC
:1001A000991F6A95E2F7822B8BBB08952BB381E0F0
:1001B00090E002C0880F991F6A95E2F7809582232C
:1001C0008BBB0895413059F428B381E090E002C020
:1001D000880F991F6A95E2F7822B88BB089528B390
:1001E00081E090E002C0880F991F6A95E2F7809540
:1001F000822388BB0895413059F425B381E090E013
:1002000002C0880F991F6A95E2F7822B85BB08957B
:1002100025B381E090E002C0880F991F6A95E2F74C
:100220008095822385BB0895413059F422B381E043
:1002300090E002C0880F991F6A95E2F7822B82BB7B
:10024000089522B381E090E002C0880F991F6A955B
:10025000E2F78095822382BB0895843008F04EC077
:10026000683008F04BC04115510509F447C0813092
:10027000B1F028F0823019F1833089F1089589B303
:1002800090E002C0959587956A95E2F780FF04C0DB
:1002900081E0FA0180830895FA011082089586B3FF
:1002A00090E002C0959587956A95E2F780FF04C0BB
:1002B00081E0FA0180830895FA011082089583B3E2
:1002C00090E002C0959587956A95E2F780FF04C09B
:1002D00081E0FA0180830895FA011082089580B3C5
:1002E00090E002C0959587956A95E2F780FF04C07B
:1002F00081E0FA0180830895FA0110820895843024
:10030000A8F5683098F5813089F028F08230C9F07E
:10031000833011F108952BB381E090E002C0880F83
:10032000991F6A95E2F7822B8BBB089528B381E071
:1003300090E002C0880F991F6A95E2F7822B88BB74
:10034000089525B381E090E002C0880F991F6A9557
:10035000E2F7822B85BB089522B381E090E002C0D2
:10036000880F991F6A95E2F7822B82BB08957F92CE
:100370008F929F92AF92BF92CF92DF92EF92FF92B5
:100380000F931F93CF93DF93CDB7DEB769970FB667
:10039000F894DEBF0FBECDBF5C0184E0898385E0A9
:1003A0008A8386E08B8387E08C831D8281E08E8345
:1003B00082E08F8383E0888790E1E0E6F0E0DE0171
:1003C000199601900D929A95E1F7A114B10409F4E0
:1003D00057C08FEFF5018083712C912C4DC0C92C33
:1003E000D12CE1E0F0E0EC0FFD1FEC0DFD1D808055
:1003F00040E0682D83E00E94B70010E032C0E12E9B
:10040000F12CE5E0F0E0EC0FFD1FEE0DFF1D00818B
:10041000AE01475E5F4F602F83E00E942D01898D02
:1004200081111EC0EE0CFF1CEE0CFF1C81E090E061
:100430008C0F9D1FE80EF91EF701EC0DFD1D808548
:10044000F501808307C0AE01475E5F4F602F83E0F8
:100450000E942D01898D8823B1F37724739403C002
:100460001F5F143060F241E0682D83E00E94B70006
:10047000F1E07F1629F0939483E0891508F0AFCF5F
:1004800069960FB6F894DEBF0FBECDBFDF91CF9156
:100490001F910F91FF90EF90DF90CF90BF90AF90A2
:1004A0009F908F907F900895CF93C82F80FF06C0B4
:1004B00041E064E080E00E94B70005C040E064E0F5
:1004C00080E00E94B700C1FF06C041E065E080E027
:1004D0000E94B70005C040E065E080E00E94B700E0
:1004E000C2FF06C041E066E080E00E94B70005C0A0
:1004F00040E066E080E00E94B700C3FF06C041E034
:1005000067E080E00E94B70005C040E067E080E05F
:100510000E94B700CF910895CF93C82F40E061E0CB
:1005200081E00E94B70040E062E081E00E94B700F5
:100530008C2F82958F700E94540241E063E081E02D
:100540000E94B7008FE99FE00197F1F700C000001B
:1005500040E063E081E00E94B7008C2F0E945402CB
:1005600041E063E081E00E94B7008FE99FE00197DE
:10057000F1F700C0000040E063E081E00E94B700B6
:10058000CF9108952FE785EB91E021508040904076
:10059000E1F700C0000040E061E081E00E94B700A8
:1005A00040E062E081E00E94B70082E00E945402D5
:1005B00041E063E081E00E94B7008FE99FE001978E
:1005C000F1F700C0000040E063E081E00E94B70066
:1005D00088E20E948C0290EF9A95F1F78CE00E94DD
:1005E0008C0220EF2A95F1F781E00E948C028FEFB8
:1005F00098E10197F1F700C0000086E00E948C02AC
:100600000895CF93C82F41E061E081E00E94B700D8
:1006100040E062E081E00E94B7008C2F82958F70ED
:100620000E94540241E063E081E00E94B7008FE93C
:100630009FE00197F1F700C0000040E063E081E037
:100640000E94B7008C2F0E94540241E063E081E0D9
:100650000E94B7008FE99FE00197F1F700C000000A
:1006600040E063E081E00E94B700CF91089581E00F
:100670000E948C028FEF98E10197F1F700C0000013
:100680000895811107C0603168F480E8860F0E94E8
:100690008C020895813031F4603120F480EC860FB3
:1006A0000E948C020895CF93DF931F92CDB7DEB7DF
:1006B00041E064E080E00E94410041E065E080E0CC
:1006C0000E94410041E066E080E00E94410041E07C
:1006D00067E080E00E94410041E061E081E00E942B
:1006E000410041E062E081E00E94410041E063E0BE
:1006F00081E00E94410041E064E083E00E9441000B
:1007000041E065E083E00E94410041E066E083E073
:100710000E94410041E067E083E00E94410040E028
:1007200060E083E00E94410040E061E083E00E94DD
:10073000410040E062E083E00E94410040E063E06D
:1007400083E00E94410060E083E00E947F0161E05D
:1007500083E00E947F0162E083E00E947F0163E00A
:1007600083E00E947F010E94C202CE0101960E9496
:10077000B70189818F3FC9F3103129F460E081E02E
:100780000E94410305C0113218F00E94370310E0A7
:100790008981813221F40E94370310E0E6CF0E9464
:0A07A00001031F5FE2CFF894FFCFC2
:1007AA003738392F343536783132332D21303D2BD5
:00000001FF
