S01C00004C43445F4B45595041445F544553545F414D49542E73726563EF
S11300000C942A000C943F000C943F000C943F0085
S11300100C943F000C943F000C943F000C943F0060
S11300200C943F000C943F000C943F000C943F0050
S11300300C943F000C943F000C943F000C943F0040
S11300400C943F000C943F000C943F000C943F0030
S11300500C943F0011241FBECFE5D8E0DEBFCDBF16
S113006010E0A0E6B0E0EEEDF4E002C005900D92E1
S1130070AE37B107D9F70E943B020C946D020C9481
S11300800000843008F072C0683008F06FC042305D
S113009008F06CC0813001F130F08230B1F183306E
S11300A009F44CC00895413059F42AB381E090E03A
S11300B002C0880F991F6A95E2F7822B8ABB0895C4
S11300C02AB381E090E002C0880F991F6A95E2F795
S11300D0809582238ABB0895413059F427B381E087
S11300E090E002C0880F991F6A95E2F7822B87BBC4
S11300F0089527B381E090E002C0880F991F6A95A4
S1130100E2F78095822387BB0895413059F424B3E4
S113011081E090E002C0880F991F6A95E2F7822B74
S113012084BB089524B381E090E002C0880F991F36
S11301306A95E2F78095822384BB0895413059F48F
S113014021B381E090E002C0880F991F6A95E2F71D
S1130150822B81BB089521B381E090E002C0880F17
S1130160991F6A95E2F78095822381BB08958430B4
S113017008F072C0683008F06FC0423008F06CC0FC
S1130180813001F130F08230B1F1833009F44CC098
S11301900895413059F42BB381E090E002C0880FF8
S11301A0991F6A95E2F7822B8BBB08952BB381E0EC
S11301B090E002C0880F991F6A95E2F78095822328
S11301C08BBB0895413059F428B381E090E002C01C
S11301D0880F991F6A95E2F7822B88BB089528B38C
S11301E081E090E002C0880F991F6A95E2F780953C
S11301F0822388BB0895413059F425B381E090E00F
S113020002C0880F991F6A95E2F7822B85BB089577
S113021025B381E090E002C0880F991F6A95E2F748
S11302208095822385BB0895413059F422B381E03F
S113023090E002C0880F991F6A95E2F7822B82BB77
S1130240089522B381E090E002C0880F991F6A9557
S1130250E2F78095822382BB0895CF93C82F80FF55
S113026006C041E064E080E00E94B70005C040E0C1
S113027064E080E00E94B700C1FF06C041E065E091
S113028080E00E94B70005C040E065E080E00E9485
S1130290B700C2FF06C041E066E080E00E94B700FC
S11302A005C040E066E080E00E94B700C3FF06C0DE
S11302B041E067E080E00E94B70005C040E067E0ED
S11302C080E00E94B700CF910895CF93C82F40E0FB
S11302D061E081E00E94B70040E062E081E00E94BA
S11302E0B7008C2F82958F700E942D0141E063E04E
S11302F081E00E94B7008FE99FE00197F1F700C009
S1130300000040E063E081E00E94B7008C2F0E946F
S11303102D0141E063E081E00E94B7008FE99FE096
S11303200197F1F700C0000040E063E081E00E9423
S1130330B700CF9108952FE785EB91E021508040DD
S11303409040E1F700C0000040E061E081E00E94DD
S1130350B70040E062E081E00E94B70082E00E94C2
S11303602D0141E063E081E00E94B7008FE99FE046
S11303700197F1F700C0000040E063E081E00E94D3
S1130380B70088E20E94650190EF9A95F1F78CE03E
S11303900E94650120EF2A95F1F781E00E94650132
S11303A08FEF98E10197F1F700C0000086E00E940A
S11303B065010895CF93C82F41E061E081E00E9478
S11303C0B70040E062E081E00E94B7008C2F829584
S11303D08F700E942D0141E063E081E00E94B7002C
S11303E08FE99FE00197F1F700C0000040E063E06F
S11303F081E00E94B7008C2F0E942D0141E063E050
S113040081E00E94B7008FE99FE00197F1F700C0F7
S1130410000040E063E081E00E94B700CF910895BE
S11304200F931F93CF93DF93009729F40DC00E947D
S1130430DA01219603C08C01C0E0D0E0F801EC0F92
S1130440FD1F80818111F3CFDF91CF911F910F9117
S11304500895811107C0603168F480E8860F0E9416
S113046065010895813031F4603120F480EC860F09
S11304700E946501089541E064E080E00E9441002B
S113048041E065E080E00E94410041E066E080E0F8
S11304900E94410041E067E080E00E94410041E0A9
S11304A061E081E00E94410041E062E081E00E945D
S11304B0410041E063E081E00E9441000E949B0111
S11304C080E690E00E94100260E081E00E94290230
S11104D08FE690E00E941002FFCFF894FFCF59
S11304DE4C6561726E20496E204465707468004DDF
S11104EE6164652042792041686D65640000F8
S9030000FC
