S01B00005461736B325F556E6974375F4C6573736F6E312E737265630A
S11300000C942A000C9434000C9434000C943400A6
S11300100C9434000C9434000C9434000C9434008C
S11300200C9434000C9434000C9434000C9434007C
S11300300C9434000C9434000C9434000C9434006C
S11300400C9434000C9434000C9434000C9434005C
S11300500C94340011241FBECFE5D8E0DEBFCDBF21
S11300600E9436000C9462000C9400008FEF8ABB4F
S113007084B38E7F84BB85B3816085BB50E098993F
S1130080FECF0EC04BB381E090E0022E02C0880F79
S1130090991F0A94E2F7842B8BBB2F5F3F4F02C05A
S11300A020E030E0852F90E0821793075CF75F5FD4
S11300B02FEF84E39CE0215080409040E1F700C0A2
S10B00C00000DDCFF894FFCF2E
S9030000FC
