:100000000C942A000C9434000C9434000C943400AA
:100010000C9434000C9434000C9434000C94340090
:100020000C9434000C9434000C9434000C94340080
:100030000C9434000C9434000C9434000C94340070
:100040000C9434000C9434000C9434000C94340060
:100050000C94340011241FBECFE5D8E0DEBFCDBF25
:100060000E9436000C9479000C94000088EF81BB4C
:1000700087E090E0809B33C0853091056CF042B3FF
:1000800021E030E0082E02C0220F331F0A94E2F76D
:10009000242B22BB019721C084309105D9F442B3AF
:1000A00021E030E0082E02C0220F331F0A94E2F74D
:1000B000342F322B32BB4FEF59E668E141505040AC
:1000C0006040E1F700C0000032B32095232322BB3B
:1000D000019703C012BA87E090E08099FECF2FEF1E
:1000E00030E742E0215030404040E1F700C00000DE
:0600F000C1CFF894FFCF20
:00000001FF
