:100000000C942A000C9476000C9495000C94B40087
:100010000C9434000C9434000C9434000C94340090
:100020000C9434000C9434000C9434000C94340080
:100030000C9434000C9434000C9434000C94340070
:100040000C9434000C9434000C9434000C94340060
:100050000C94340011241FBECFE5D8E0DEBFCDBF25
:100060000E9452000C94D3000C9400008FB780685B
:100070008FBF089585B7816085BF8BB780648BBFC4
:10008000089585B7846085BF85B7886085BF8BB7C5
:1000900080688BBF089584B78F7B84BF8BB78062E5
:1000A0008BBF089581B38B7F81BB81B3877F81BB79
:1000B00087B38B7F87BB81B3806281BB81B3806450
:1000C00081BB81B3806881BB0E9436000E943A00E8
:1000D0000E9441000E944B0082B38F7D82BB82B39D
:1000E0008F7B82BB82B38F7782BBF6CF1F920F923A
:1000F0000FB60F9211242F938F939F9382B3806238
:1001000082BB2FE38DE093E0215080409040E1F7E7
:1001100000C000008AB780648ABF9F918F912F91A1
:100120000F900FBE0F901F9018951F920F920FB651
:100130000F9211242F938F939F9382B3806482BB7D
:100140002FE38DE093E0215080409040E1F700C024
:1001500000008AB780688ABF9F918F912F910F907E
:100160000FBE0F901F9018951F920F920FB60F920F
:1001700011242F938F939F9382B3806882BB2FE3C8
:100180008DE093E0215080409040E1F700C00000F6
:100190008AB780628ABF9F918F912F910F900FBE77
:0A01A0000F901F901895F894FFCF00
:00000001FF
